:020000040800F2
:1000000000000220810C00087F0C00087D0C000815
:100010007D0C00087D0C00087D0C0008000000002D
:100020000000000000000000000000007F0C00083D
:100030007F0C0008000000007F0C0008410200084F
:100040007D0C00087D0C00087D0C00087D0C00086C
:100050007D0C00087D0C00087D0C00087D0C00085C
:100060007D0C00087D0C00087D0C00087D0C00084C
:100070007D0C00087D0C00087D0C00087D0C00083C
:100080007D0C00087D0C00087D0C00087D0C00082C
:100090007D0C00087D0C00087D0C00087D0C00081C
:1000A0007D0C00087D0C00087D0C00087D0C00080C
:1000B0007D0C00087D0C00087D0C00087D0C0008FC
:1000C0007D0C00087D0C00087D0C00087D0C0008EC
:1000D0007D0C00087D0C00087D0C00087D0C0008DC
:1000E0007D0C00087D0C00087D0C00087D0C0008CC
:1000F0007D0C00087D0C00087D0C00087D0C0008BC
:100100007D0C00087D0C00087D0C00087D0C0008AB
:100110007D0C00087D0C00087D0C00087D0C00089B
:100120007D0C00087D0C00087D0C00087D0C00088B
:100130007D0C00087D0C00087D0C00087D0C00087B
:100140007D0C00087D0C00087D0C00087D0C00086B
:100150007D0C00087D0C00087D0C00087D0C00085B
:100160007D0C00087D0C00087D0C00087D0C00084B
:100170007D0C00087D0C00087D0C00087D0C00083B
:100180007D0C00087D0C00087D0C00087D0C00082B
:100190007D0C00087D0C00087D0C00087D0C00081B
:1001A0007D0C00087D0C00087D0C000880B500AFB8
:1001B0000A4800F0A7FC1F21094800F0C6F90949C8
:1001C000094800F0C2F94FF4A041084800F0BDF919
:1001D0004021074800F0B9F900BF80BD4C1000086D
:1001E0003038024007C020204038024044380240E6
:1001F0003438024080B500AFFFF7D8FF00BF80BDA4
:1002000080B400AF044B1B68034A43F0040313603F
:1002100000BFBD4680BC70470008065080B582B064
:1002200000AF7860002000F08BFD786800F070FD72
:1002300000F0B0FD00F0BEFD00BF0837BD4680BD38
:1002400080B500AF034B1B689BB2184600F080F8E6
:1002500000BF80BD0C00002080B400AF064B1B68BF
:1002600003F00403002B14BF01230023DBB2184664
:10027000BD4680BC704700BF0408065080B400AF84
:10028000064B1B6803F00203002B14BF012300235D
:10029000DBB21846BD4680BC704700BF040806505C
:1002A00080B400AF064B1B6803F00103002B14BFA2
:1002B00001230023DBB21846BD4680BC704700BF57
:1002C0000408065080B500AF0BE0FFF7C5FF0346FA
:1002D000002B04D1FFF7D2FF0346002B01D0FFF71C
:1002E0008FFFFFF7DDFF0346002BEED000BF00BFFE
:1002F00080BD80B500AFFFF77DFF00F01BF84FF425
:10030000704300220121074800F0B8F80648FFF7C3
:1003100085FFFFF775FFFFF7D5FF044B1B68044A05
:100320001360F8E7000C0240FFFF8F00080806503A
:100330000C00002080B500AF4FF470430022012173
:10034000024800F09BF800BF80BD00BF000C0240D7
:1003500080B487B000AF0346FB80FB887B610A4B0B
:100360001B6823F470433B617B6903F00F03FB6060
:10037000FB681A0304493B6913430B6000BF1C3739
:10038000BD4680BC704700BF140C024090B484B0DE
:1003900000AF0446084611461A462346FB71034641
:1003A000BB710B467B7113463B71FB791A03BB791A
:1003B0005B031A437B799B031A433B79DB031343AB
:1003C000FB60074B1B6823F47043BB600449BA68A9
:1003D000FB6813430B6000BF1037BD4690BC7047ED
:1003E000140C024080B487B000AF0346FB80FB884A
:1003F00003F00103002B0CBF01230023DBB27B6160
:10040000FB8803F00203002B0CBF01230023DBB2A7
:100410003B61FB8803F00403002B0CBF0123002386
:10042000DBB2FB60FB8803F00803002B0CBF012349
:100430000023DBB2BB607B691B010C3301229A40B5
:100440003B691B010D33012101FA03F31A43FB68D9
:100450001B010E33012101FA03F31A43BB681B0190
:100460000F33012101FA03F31A43034B1A6000BF53
:100470001C37BD4680BC7047180C02402DE9F04186
:100480000568C46800264FF0030E43FA06F7FF071D
:100490000FD577000EFA07FC6FEA0C0C01FA07F88B
:1004A0000CEA05050CEA040402FA07F748EA050518
:1004B0003C430136102EE8D10560C460BDE8F081F0
:1004C000012941680CBF19439943F0B54160816827
:1004D0000024032643FA04F5ED0707D5650006FA64
:1004E00005F721EA070102FA05F529430134102C2A
:1004F000F0D18160F0BDF0B5076A466A00234FF085
:100500000F0C42FA03F4E50707D59D000CFA05F439
:1005100027EA040701FA05F52F430133082BF0D130
:100520004FF00F0C42FA03F4E40708D59C00203C7E
:100530000CFA04F526EA050601FA04F42643013311
:10054000102BEFD107624662F0BD036819430160CA
:100550007047036823EA010101607047036819438B
:1005600001607047036823EA010101607047430995
:1005700003F1804303F50E3300F01F0219680120D8
:100580009040084318607047430903F1804303F526
:100590000E3300F01F001A68012101FA00F022EA70
:1005A00000021A607047430903F1804303F50E33DC
:1005B00000F01F02196801209040014319601A6879
:1005C00022EA000018607047430903F1804303F5F5
:1005D0000E3300F01F021968012090400843186094
:1005E0007047430903F1804303F50E3300F01F0009
:1005F0001A68012101FA00F022EA00021A6070472D
:10060000034A136823F4C00343EA40501060704764
:1006100008380240032802D0052806D07047054A52
:10062000136843F4802313607047034A136843F050
:100630000403F8E70038024070380240032802D073
:10064000052806D07047054A136823F480231360F9
:100650007047034A136823F00403F8E700380240A8
:100660007038024007284FF0010306D90B2894BFC9
:1006700007380638834098B2704718467047000024
:1006800006280AD8DFE800F0041E230A0F14190018
:10069000114A136843F48013136070470E4A1368BD
:1006A00043F40023F8E70C4A136843F48023F3E78C
:1006B000094A136843F40033EEE7074A136843F42A
:1006C0008033E9E7044A136843F48003E4E7024A0D
:1006D000136843F40013DFE70C38024006280AD8F9
:1006E000DFE800F0041E230A0F141900114A1368F2
:1006F00043F48053136070470E4A136843F4006359
:10070000F8E70C4A136843F48063F3E7094A136877
:1007100043F40073EEE7074A136843F48073E9E794
:10072000044A136843F48043E4E7024A136843F43D
:100730000053DFE70C38024006280AD8DFE800F053
:10074000041E230A0F141900114A136823F480535E
:10075000136070470E4A136823F40063F8E70C4AED
:10076000136823F48063F3E7094A136823F40073E2
:10077000EEE7074A136823F48073E9E7044A136835
:1007800023F48043E4E7024A136823F40053DFE7CD
:100790000C380240062828D8DFE800F0041D2209A2
:1007A0000E131800124B1868C0F300107047104B5E
:1007B0001868C0F3C00070470D4B1868C0F3800084
:1007C00070470B4B1868C0F340007047084B18681F
:1007D00000F001007047064B1868C0F380107047A6
:1007E000034B1868C0F3401070470020704700BFEB
:1007F0000C380240024A136843F400031360704748
:100800000C380240024B1868C0F3C010704700BF9C
:100810000C380240062822D8DFE800F004171C0933
:100820000E1315000F4B1868C0F3406070470D4B56
:100830001868C0F3404070470A4B1868C0F3400086
:100840007047094BF9E7094BF7E7064B1868C0F307
:1008500040707047034B1868C0F3C06070470020B9
:10086000704700BF003802407038024074380240C0
:1008700008B502461046FFF7CDFF0028FAD008BDA4
:10088000032806D10B4A1368C3F38103012BFAD165
:100890007047042805D1074A136813F00C0FFBD1E9
:1008A00070470028FCD1034A1368C3F38103022B6D
:1008B000FAD170470838024006280AD8DFE800F06D
:1008C00004181D0A0F1416000E4A136843F08073B3
:1008D000136070470B4A136843F48033F8E7094A02
:1008E000136843F00103F3E7074AF9E7074AF7E71C
:1008F000044A136843F08053EAE7024A136843F05E
:100900008063E5E7003802407038024074380240E6
:1009100006280AD8DFE800F004181D0A0F14160094
:100920000E4A136823F08073136070470B4A1368F4
:1009300023F48033F8E7094A136823F00103F3E74F
:10094000074AF9E7074AF7E7044A136823F0805398
:10095000EAE7024A136823F08063E5E700380240C3
:100960007038024074380240024A136843F400238E
:100970001360704700380240024A136823F40023D2
:10098000136070470038024047F6C073090703EA56
:10099000801001F0E0431843014B1860704700BF1E
:1009A0008438024012061B0703F0E04302F0706235
:1009B00009041A4301F4403147F6C07303EA80107A
:1009C0000A43024B02431A60704700BF8838024056
:1009D000074A136823F07F4323F47C03090423F4BC
:1009E000604341EA002123F0FF031943116070477F
:1009F0008C380240034A136823F003031843106045
:100A0000704700BF08380240034A136823F480038C
:100A100043EA80501060704704380240034A13686C
:100A200023F4604343EA40301060704708380240C6
:100A3000034A136823F4E05343EA802010607047B0
:100A400008380240034A136823F0F00343EA001019
:100A50001060704708380240034A136823F4F81303
:100A600043EA0040106070470838024010B547F66E
:100A7000C07404EA811100F03F001B0603F07063AC
:100A800001431943029B5408022B04F1FF344FEA3F
:100A9000044438BF022304F440341B0703F0E0434E
:100AA00021431943014B196010BD00BF04380240B7
:100AB00010B5029C022C38BF022424071B0603F049
:100AC000706304F0E0441C4300F03F0047F6C0733D
:100AD00003EA811104430C4351080139090401F46C
:100AE00040310C43024B44F480041C6010BD00BF35
:100AF00004380240024B1868C0F38100704700BF01
:100B00000838024037B504460420FFF7D5FE04201C
:100B1000FFF7AEFE0020FFF76DFFE379012B05D153
:100B20000320FFF7C9FE0320FFF7A2FE40F61C00DA
:100B3000FFF71DFDE07B00F0B9F9207BFFF782FF96
:100B4000607BFFF775FFA07BFFF768FF254A618890
:100B5000136823F080731360E379A57922792078F4
:100B60000095012B637931D1FFF7A2FF1D4A13686D
:100B700043F0807313600020FFF77AFEA3685A05E4
:100B800027D500F063F9A3689B0525D500F06EF921
:100B9000A06800F045F90220FFF72CFF124A136805
:100BA000C3F38103022BFAD1104B22691A60104B58
:100BB00062691A600F4BA2691A60E379012B0ED1AA
:100BC000042003B0BDE83040FFF7A2BEFFF74EFFA0
:100BD000CCE700F043F9D6E700F050F9D8E703B0CE
:100BE00030BD00BF0038024008380240000000203D
:100BF0000400002008000020FFF784BF044B20F40D
:100C0000806098420CBF034B034B1868704700BFCD
:100C100000100140080000200400002000F14040C6
:100C2000084BB0F5005F1B6806D8074A106813F43C
:100C3000E05F18BF40007047044A13F4604F10682B
:100C4000F7E700BF08380240040000200800002039
:100C5000014B1868704700BF04000020044B20F4CB
:100C6000806098420CBF034B034B1868704700BF6D
:100C7000003800400400002008000020FEE7704714
:100C800038B5184A184B19498B4217D3184A002116
:100C9000934218D3174A184C1368184D43F4007345
:100CA0001360AC4212D3164C164DAC4212D3FFF770
:100CB00020FB154C154DAC4210D338BD52F8040B37
:100CC00043F8040BE0E743F8041BE1E754F8043B66
:100CD0009847E6E754F8043B9847E6E754F8043BA6
:100CE0009847E8E7F4100008000000200C000020FE
:100CF0001000002014ED00E0F4100008F4100008CB
:100D0000F4100008F4100008F4100008F4100008B3
:100D1000024B20F07F401860704700BF14E000E0F5
:100D2000024B186820F07F40704700BF14E000E0DD
:100D3000024B186820F07F40704700BF18E000E0C9
:100D4000044A136800F0040023F004030343136013
:100D5000704700BF10E000E008B5B1FBF0F10A4BAE
:100D600099420ED8094B99428ABF00200420C90835
:100D7000FFF7E6FF064B013921F07F4119600120A2
:100D800008BD0020FCE700BFF7FFFF07FEFFFF00E4
:100D900014E000E0024A136843F002031360704756
:100DA00010E000E0024A136823F00203136070476A
:100DB00010E000E0024A136843F00103136070473B
:100DC00010E000E0024A136823F00103136070474B
:100DD00010E000E0024B1868C0F30040704700BF0D
:100DE00010E000E0014B00221A60704718E000E0BC
:100DF000024B186820F07F40704700BF1CE000E005
:100E0000024A136843F4807313607047003C024049
:100E1000024A136823F4807313607047003C024059
:100E2000034A136823F00F0318431060704700BF94
:100E3000003C0240034B044A1A6002F144321A603B
:100E4000704700BF083C02403B2A1908024A136859
:100E500043F4806313607047003C0240024A136809
:100E600023F4806313607047003C0240024A136819
:100E700043F4007313607047003C0240024A136859
:100E800023F4007313607047003C0240024A136869
:100E900043F4805313607047003C0240024A1368D9
:100EA00043F4006313607047003C0240044A136837
:100EB000800323F4404380B218431060704700BFA2
:100EC000007000400C005001040700010206000001
:100ED0000004000300BD010580DE800200BD0105A5
:100EE0000600600002040001030600000004000385
:100EF00000D8B805006CDC0200D8B8050C00500121
:100F0000020700010506000000050403007A030A39
:100F100080DE800200BD01050C00680102080001AE
:100F200005060000000504030095BA0A40A5AE02BC
:100F3000804A5D0510005001040700010206000010
:100F40000004000300BD010580DE800200BD010534
:100F50000800600002040001030600000004000312
:100F600000D8B805006CDC0200D8B80510005001AC
:100F7000020700010506000000050403007A030AC9
:100F800080DE800200BD010510006801020800013A
:100F900005060000000504030095BA0A40A5AE024C
:100FA000804A5D0519005001040700010206000097
:100FB0000004000300BD010580DE800200BD0105C4
:100FC0001900C00002040001030600000004000331
:100FD00000D8B805006CDC0200D8B8051900500133
:100FE000020700010506000000050403007A030A59
:100FF00080DE800200BD01051900680102080001C1
:1010000005060000000504030095BA0A40A5AE02DB
:10101000804A5D0508005001040700010206000037
:101020000004000300BD010580DE800200BD010553
:101030000400600002040001030600000004000335
:1010400000D8B805006CDC0200D8B80508005001D3
:10105000020700010506000000050403007A030AE8
:1010600080DE800200BD0105080068010208000161
:1010700005060000000504030095BA0A40A5AE026B
:10108000804A5D05100050010407000002060000C0
:101090000004000300BD010580DE800200BD0105E3
:1010A00008006000020400000306000000040003C2
:1010B00000D8B805006CDC0200D8B805100050015B
:1010C000020700000506000000050403007A030A79
:1010D00080DE800200BD01051000680102080000EA
:1010E00005060000000504030095BA0A40A5AE02FB
:0410F000804A5D05D0
:0C10F4000024F4000024F4000024F400A8
:0400000508000C8162
:00000001FF
