:020000040800F2
:1000000000000220E90F0008E70F0008E50F0008D4
:10001000E50F0008E50F0008E50F000800000000EC
:10002000000000000000000000000000E70F0008D2
:10003000E70F000800000000E70F0008E70F0008C6
:10004000E50F0008E50F0008E50F0008E50F0008C0
:10005000E50F0008E50F0008E50F0008E50F0008B0
:10006000E50F0008E50F0008E50F0008E50F0008A0
:10007000E50F0008E50F0008E50F0008E50F000890
:10008000E50F0008E50F0008E50F0008E50F000880
:10009000E50F0008E50F0008E50F0008E50F000870
:1000A000E50F0008E50F0008E50F0008E50F000860
:1000B000E50F0008E50F0008E50F0008E50F000850
:1000C000E50F0008E50F0008E50F0008E50F000840
:1000D000E50F0008E50F0008E50F0008E50F000830
:1000E000E50F0008E50F0008E50F0008E50F000820
:1000F000E50F0008E50F0008E50F0008E50F000810
:10010000E50F0008E50F0008E50F0008E50F0008FF
:10011000E50F0008E50F0008E50F0008E50F0008EF
:10012000E50F0008E50F0008E50F0008E50F0008DF
:10013000E50F0008E50F0008E50F0008E50F0008CF
:10014000E50F0008E50F0008E50F0008E50F0008BF
:10015000E50F0008E50F0008E50F0008E50F0008AF
:10016000E50F0008E50F0008E50F0008E50F00089F
:10017000E50F0008E50F0008E50F0008E50F00088F
:10018000E50F0008E50F0008E50F0008E50F00087F
:10019000E50F0008E50F0008E50F0008E50F00086F
:1001A000E50F0008E50F0008E50F000880B500AF77
:1001B0000A4800F013FD1F21094800F032FA0949EE
:1001C000094800F02EFA4FF4A041084800F029FA3F
:1001D0004021074800F025FA00BF80BDC412000886
:1001E0003038024007C020204038024044380240E6
:1001F0003438024080B500AFFFF7D8FF00BF80BDA4
:1002000080B500AFFFF7F6FF00F024F800F088F8A3
:100210000F2000F0A5F803461A460D4B1A70222154
:10022000102000F0C3F8102000F09AF803461A4698
:10023000074B1A700021102000F0B8F800F0DEF82B
:1002400000F0F4F800F000F900F014F9F8E700BF4E
:100250000C00002080B500AF4FF470430022012154
:10026000024800F077F900BF80BD00BF000C0240DB
:1002700080B483B000AF03460A46FB8013467B710F
:100280007B79002B05D0FB88012202FA03F31A4682
:1002900005E0FB881033012202FA03F31A46034BF0
:1002A0001A6000BF0C37BD4680BC7047180C024076
:1002B00080B500AFE023002202210D4800F04AF98A
:1002C000E02205210A4800F082F9082300220121DA
:1002D000084800F03FF9012300220021054800F002
:1002E00039F901220F21034800F071F900BF80BDE8
:1002F000000002400010024080B500AF0821024813
:1003000000F00CF900BF80BD0010024080B500AFC6
:100310000821024800F000F900BF80BD0010024033
:1003200080B582B002AFFFF7C3FFFFF7EFFF0B48C6
:1003300000F092FD00230193002300930123022289
:100340001821064800F030FE044800F094FD0348F0
:1003500000F030FD00BFBD4680BD00BF0030014051
:1003600080B584B000AF0346FB71FFF7C5FFFB7992
:1003700063F07F03DBB29BB219460B4800F039FDF6
:10038000094800F03BFD0021074800F032FD064817
:1003900000F034FD0346FB73FFF7B8FFFB7B184604
:1003A0001037BD4680BD00BF0030014080B582B02F
:1003B00000AF03460A46FB711346BB71FFF79CFF73
:1003C000FB799BB223F080039BB219460A4800F0E8
:1003D00010FD094800F012FDBB799BB21946064892
:1003E00000F007FD044800F009FDFFF78FFF00BF94
:1003F0000837BD4680BD00BF0030014080B500AF6A
:1004000040212420FFF7D2FF10212520FFF7CEFF47
:1004100000212E20FFF7CAFF37212020FFF7C6FF5B
:10042000E8212320FFF7C2FF00BF80BD80B500AFE9
:1004300000BF2720FFF794FF034603F00803002BBB
:10044000F7D000BF00BF80BD80B500AF2920FFF707
:1004500087FF03465AB2054B1A702B20FFF780FF27
:1004600003465AB2024B1A7000BF80BD0D00002037
:100470000E00002080B500AF254B93F90030072B0C
:1004800008DD01210E20FFF7F3FE00210C20FFF70D
:10049000EFFE16E01E4B93F9003013F1070F08DA58
:1004A00000210E20FFF7E4FE01210C20FFF7E0FE03
:1004B00007E000210E20FFF7DBFE00210C20FFF7F4
:1004C000D7FE144B93F90030072B08DD01210D20D6
:1004D000FFF7CEFE00210F20FFF7CAFE16E00D4BFE
:1004E00093F9003013F1070F08DA00210D20FFF710
:1004F000BFFE01210F20FFF7BBFE07E000210D200A
:10050000FFF7B6FE00210F20FFF7B2FE00BF80BD4F
:100510000D0000200E0000208161704709048161F8
:100520007047006908407047436901EA030221EA05
:10053000030141EA024181617047006980B270475E
:100540004161704741F48033C361C161C361C369D4
:10055000C36970472DE9F0410568C46800264FF073
:10056000030E43FA06F7FF070FD577000EFA07FCD4
:100570006FEA0C0C01FA07F80CEA05050CEA040412
:1005800002FA07F748EA05053C430136102EE8D188
:100590000560C460BDE8F081012941680CBF1943C2
:1005A0009943F0B5416081680024032643FA04F5BD
:1005B000ED0707D5650006FA05F721EA070102FAFB
:1005C00005F529430134102CF0D18160F0BDF0B560
:1005D000076A466A00234FF00F0C42FA03F4E5075E
:1005E00007D59D000CFA05F427EA040701FA05F582
:1005F0002F430133082BF0D14FF00F0C42FA03F4D4
:10060000E40708D59C00203C0CFA04F526EA050610
:1006100001FA04F426430133102BEFD1076246623E
:10062000F0BD0368194301607047036823EA0101C4
:10063000016070470368194301607047036823EA4B
:10064000010101607047430903F1804303F50E3354
:1006500000F01F021968012090400843186070479D
:10066000430903F1804303F50E3300F01F001A68BD
:10067000012101FA00F022EA00021A6070474309E2
:1006800003F1804303F50E3300F01F0219680120C7
:100690009040014319601A6822EA00001860704710
:1006A000430903F1804303F50E3300F01F0219687C
:1006B00001209040084318607047430903F18043CC
:1006C00003F50E3300F01F001A68012101FA00F053
:1006D00022EA00021A607047034A136823F4C00339
:1006E00043EA40501060704708380240032802D0A7
:1006F000052806D07047054A136843F48023136029
:100700007047034A136843F00403F8E700380240D7
:1007100070380240032802D0052806D07047054AE9
:10072000136823F4802313607047034A136823F08F
:100730000403F8E7003802407038024007284FF001
:10074000010306D90B2894BF07380638834098B2B6
:10075000704718467047000006280AD8DFE800F006
:10076000041E230A0F141900114A136843F480135E
:10077000136070470E4A136843F40023F8E70C4AED
:10078000136843F48023F3E7094A136843F4003302
:10079000EEE7074A136843F48033E9E7044A136835
:1007A00043F48003E4E7024A136843F40013DFE7ED
:1007B0000C38024006280AD8DFE800F0041E230A9D
:1007C0000F141900114A136843F4805313607047E3
:1007D0000E4A136843F40063F8E70C4A136843F4C5
:1007E0008063F3E7094A136843F40073EEE7074AAE
:1007F000136843F48073E9E7044A136843F48043C1
:10080000E4E7024A136843F40053DFE70C38024080
:1008100006280AD8DFE800F0041E230A0F14190086
:10082000114A136823F48053136070470E4A13680B
:1008300023F40063F8E70C4A136823F48063F3E7BA
:10084000094A136823F40073EEE7074A136823F498
:100850008073E9E7044A136823F48043E4E7024A1B
:10086000136823F40053DFE70C380240062828D829
:10087000DFE800F0041D22090E131800124B18685F
:10088000C0F300107047104B1868C0F3C0007047E9
:100890000D4B1868C0F3800070470B4B1868C0F30D
:1008A00040007047084B186800F001007047064B85
:1008B0001868C0F380107047034B1868C0F34010ED
:1008C00070470020704700BF0C380240024A13688E
:1008D00043F40003136070470C380240024B186861
:1008E000C0F3C010704700BF0C380240062822D861
:1008F000DFE800F004171C090E1315000F4B1868F1
:10090000C0F3406070470D4B1868C0F3404070471B
:100910000A4B1868C0F340007047094BF9E7094BD0
:10092000F7E7064B1868C0F340707047034B186830
:10093000C0F3C06070470020704700BF003802401D
:10094000703802407438024008B502461046FFF77E
:10095000CDFF0028FAD008BD032806D10B4A136842
:10096000C3F38103012BFAD17047042805D1074A4C
:10097000136813F00C0FFBD170470028FCD1034A19
:100980001368C3F38103022BFAD170470838024081
:1009900006280AD8DFE800F004181D0A0F14160014
:1009A0000E4A136843F08073136070470B4A136854
:1009B00043F48033F8E7094A136843F00103F3E78F
:1009C000074AF9E7074AF7E7044A136843F08053F8
:1009D000EAE7024A136843F08063E5E70038024023
:1009E000703802407438024006280AD8DFE800F068
:1009F00004181D0A0F1416000E4A136823F08073A2
:100A0000136070470B4A136823F48033F8E7094AF0
:100A1000136823F00103F3E7074AF9E7074AF7E70A
:100A2000044A136823F08053EAE7024A136823F06C
:100A30008063E5E7003802407038024074380240B5
:100A4000024A136843F400231360704700380240E1
:100A5000024A136823F400231360704700380240F1
:100A600047F6C073090703EA801001F0E04318431A
:100A7000014B1860704700BF8438024012061B0704
:100A800003F0E04302F0706209041A4301F44031BC
:100A900047F6C07303EA80100A43024B02431A6010
:100AA000704700BF88380240074A136823F07F432D
:100AB00023F47C03090423F4604341EA002123F07A
:100AC000FF031943116070478C380240034A1368D2
:100AD00023F0030318431060704700BF083802403A
:100AE000034A136823F4800343EA80501060704780
:100AF00004380240034A136823F4604343EA403059
:100B00001060704708380240034A136823F4E0532A
:100B100043EA80201060704708380240034A136897
:100B200023F0F00343EA00101060704708380240D9
:100B3000034A136823F4F81343EA00401060704737
:100B40000838024010B547F6C07404EA811100F07D
:100B50003F001B0603F0706301431943029B5408D6
:100B6000022B04F1FF344FEA044438BF022304F49B
:100B700040341B0703F0E04321431943014B196044
:100B800010BD00BF0438024010B5029C022C38BFD3
:100B9000022424071B0603F0706304F0E0441C43A6
:100BA00000F03F0047F6C07303EA811104430C4391
:100BB00051080139090401F440310C43024B44F45B
:100BC00080041C6010BD00BF04380240024B18684E
:100BD000C0F38100704700BF0838024037B50446B3
:100BE0000420FFF7D5FE0420FFF7AEFE0020FFF73C
:100BF0006DFFE379012B05D10320FFF7C9FE032028
:100C0000FFF7A2FE40F61C00FFF71DFDE07B00F0A1
:100C100089FA207BFFF782FF607BFFF775FFA07BDF
:100C2000FFF768FF254A6188136823F0807313601B
:100C3000E379A579227920780095012B637931D168
:100C4000FFF7A2FF1D4A136843F080731360002072
:100C5000FFF77AFEA3685A0527D500F033FAA36898
:100C60009B0525D500F03EFAA06800F015FA022099
:100C7000FFF72CFF124A1368C3F38103022BFAD14A
:100C8000104B22691A60104B62691A600F4BA269FF
:100C90001A60E379012B0ED1042003B0BDE8304087
:100CA000FFF7A2BEFFF74EFFCCE700F013FAD6E73E
:100CB00000F020FAD8E703B030BD00BF0038024092
:100CC0000838024000000020040000200800002036
:100CD000FFF784BF044B20F4806098420CBF034BA5
:100CE000034B1868704700BF001001400800002047
:100CF0000400002000F14040084BB0F5005F1B6885
:100D000006D8074A106813F4E05F18BF4000704728
:100D1000044A13F4604F1068F7E700BF0838024038
:100D20000400002008000020014B1868704700BF35
:100D300004000020044B20F4806098420CBF034B59
:100D4000034B1868704700BF0038004004000020C3
:100D500008000020154B984217D008D8A3F5784317
:100D6000984216D003F58063984215D07047104B17
:100D7000984214D003F58063984213D0A3F5005332
:100D8000984212D140F28D4001E040F28C40FFF7D2
:100D900076BC40F20E40FAE740F20F40F7E740F22F
:100DA0009440F4E740F29540F1E77047003001408D
:100DB00000500140036843F040030360704703683C
:100DC00023F040030360704703469968C80703F1A6
:100DD0000802FAD5D86880B211688907FCD5116875
:100DE0000906FCD41A6822F040021A607047C160FC
:100DF000704783689B07FCD5C16070478368DB0739
:100E0000FCD5C06880B27047C1608368DB07FCD541
:100E1000C06880B27047036843F4004303607047C2
:100E2000036823F4004303607047036843F40043FE
:100E30000360036823F4804303607047036843F44E
:100E400000430360036843F4804303607047036812
:100E500043F4005303607047036823F400530360B6
:100E60007047036823F4805303607047036843F4BA
:100E7000805303607047036823F480630360704706
:100E8000036843F4806303607047036823F40073CE
:100E900003607047036843F400730360436823F002
:100EA000040343607047036843F480730360704732
:100EB000036823F4807303607047036843F0800382
:100EC00003607047036823F08003036070470729BD
:100ED00007D8036823F038031B041B0C43EAC10343
:100EE00003607047036843F00403036070470368BE
:100EF00023F0040303607047036843F002030360B8
:100F00007047036823F0020303607047036843F0EF
:100F1000010303607047036823F001030360704717
:100F2000436843F0800343607047436823F08003C5
:100F300043607047436843F0400343607047436831
:100F400023F0400343607047436843F0200343604D
:100F50007047436823F0200343607047436843F0C1
:100F6000040343607047436823F004034360704701
:100F7000436843F0020343607047436823F0020371
:100F800043607047436843F0010343607047436820
:100F900023F001034360704703299FBF036823F0D8
:100FA00003030B430360704730B50468049D04F4E9
:100FB00041542C43039D2C432343134342680B436A
:100FC00043F0040342F0040242600360002030BD9D
:100FD000036823F4006303607047036843F400630D
:100FE00003607047FEE7704738B5184A184B194937
:100FF0008B4217D3184A0021934218D3174A184C32
:101000001368184D43F400731360AC4212D3164CAE
:10101000164DAC4212D3FFF7F3F8154C154DAC4208
:1010200010D338BD52F8040B43F8040BE0E743F843
:10103000041BE1E754F8043B9847E6E754F8043B07
:101040009847E6E754F8043B9847E8E76C13000834
:10105000000000200C0000201000002014ED00E033
:101060006C1300086C1300086C1300086C13000864
:101070006C1300086C130008024A136843F4807371
:1010800013607047003C0240024A136823F48073E7
:1010900013607047003C0240034A136823F00F03BB
:1010A00018431060704700BF003C0240034B044AE5
:1010B0001A6002F144321A60704700BF083C0240D7
:1010C0003B2A1908024A136843F48063136070478F
:1010D000003C0240024A136823F4806313607047A7
:1010E000003C0240024A136843F4007313607047E7
:1010F000003C0240024A136823F4007313607047F7
:10110000003C0240024A136843F480531360704766
:10111000003C0240024A136843F4006313607047C6
:10112000003C0240044A1368800323F4404380B229
:1011300018431060704700BF007000400C00500161
:1011400004070001020600000004000300BD0105C1
:1011500080DE800200BD010506006000020400017F
:10116000030600000004000300D8B805006CDC0290
:1011700000D8B8050C005001020700010506000068
:1011800000050403007A030A80DE800200BD010529
:101190000C006801020800010506000000050403B8
:1011A0000095BA0A40A5AE02804A5D0510005001C4
:1011B00004070001020600000004000300BD010551
:1011C00080DE800200BD010508006000020400010D
:1011D000030600000004000300D8B805006CDC0220
:1011E00000D8B805100050010207000105060000F4
:1011F00000050403007A030A80DE800200BD0105B9
:101200001000680102080001050600000005040343
:101210000095BA0A40A5AE02804A5D05190050014A
:1012200004070001020600000004000300BD0105E0
:1012300080DE800200BD01051900C000020400012B
:10124000030600000004000300D8B805006CDC02AF
:1012500000D8B8051900500102070001050600007A
:1012600000050403007A030A80DE800200BD010548
:1012700019006801020800010506000000050403CA
:101280000095BA0A40A5AE02804A5D0508005001EB
:1012900004070001020600000004000300BD010570
:1012A00080DE800200BD0105040060000204000130
:1012B000030600000004000300D8B805006CDC023F
:1012C00000D8B8050800500102070001050600001B
:1012D00000050403007A030A80DE800200BD0105D8
:1012E000080068010208000105060000000504036B
:1012F0000095BA0A40A5AE02804A5D051000500173
:1013000004070000020600000004000300BD010500
:1013100080DE800200BD01050800600002040000BC
:10132000030600000004000300D8B805006CDC02CE
:1013300000D8B805100050010207000005060000A3
:1013400000050403007A030A80DE800200BD010567
:1013500010006801020800000506000000050403F3
:0C1360000095BA0A40A5AE02804A5D0567
:0C136C000024F4000024F4000024F4002D
:0400000508000FE9F7
:00000001FF
