:020000040800F2
:1000000000000220811D00087F1D00087D1D0008E2
:100010007D1D00087D1D00087D1D000800000000FA
:100020000000000000000000000000007F1D00082C
:100030007F1D0008000000007F1D0008C5020008A9
:100040007D1D00087D1D00087D1D00087D1D000828
:100050007D1D00087D1D00087D1D00087D1D000818
:100060007D1D00087D1D00087D1D00087D1D000808
:100070007D1D00087D1D00087D1D00087D1D0008F8
:100080007D1D00087D1D00087D1D00087D1D0008E8
:100090007D1D00087D1D00087D1D00087D1D0008D8
:1000A0007D1D00087D1D00087D1D00087D1D0008C8
:1000B0007D0200087D1D00087D1D00087D1D0008D3
:1000C0007D1D00087D1D00087D1D00087D1D0008A8
:1000D0007D1D00087D1D00087D1D00087D1D000898
:1000E0007D1D00087D1D00087D1D00087D1D000888
:1000F0007D1D00087D1D00087D1D00087D1D000878
:100100007D1D00087D1D00087D1D00087D1D000867
:100110007D1D00087D1D00087D1D00087D1D000857
:100120007D1D00087D1D00087D1D00087D1D000847
:100130007D1D00087D1D00087D1D00087D1D000837
:100140007D1D00087D1D00087D1D00087D1D000827
:100150007D1D00087D1D00087D1D00087D1D000817
:100160007D1D00087D1D00087D1D00087D1D000807
:100170007D1D00087D1D00087D1D00087D1D0008F7
:100180007D1D00087D1D00087D1D00087D1D0008E7
:100190007D1D00087D1D00087D1D00087D1D0008D7
:1001A0007D1D00087D1D00087D1D000880B500AF85
:1001B0000A4801F00FF91F21094800F02DFE0949F6
:1001C000094800F029FE4FF4A041084800F024FE41
:1001D0004021074800F020FE00BF80BDE02200085B
:1001E0003038024007C020204038024044380240E6
:1001F0003438024080B500AFFFF7D8FF00BF80BDA4
:1002000080B584B000AF3B1D83E807007B68397B75
:100210003A89184600F0B0FC7868B97AFA7A3B89D6
:1002200000F06DFC00BF1037BD4680BD80B500AF4B
:100230000F4B1B68002B18D00E4B1B88C8339AB28B
:100240000C4B1A800B4B1B8840F6C312934202D909
:10025000084B00221A80074B1B8803F5A06399B254
:1002600001230122044800F0B8FB00BF80BD00BF9D
:10027000C8000020CC0000200074004080B500AF12
:10028000FF214FF0804001F07AF9FFF7CFFF034BD9
:100290001B68184600F0ECFA00BF80BD90000020FB
:1002A00080B582B000AF7860002001F0C9FD7868A9
:1002B00001F0AEFD01F0EEFD01F0FCFD00BF0837DE
:1002C000BD4680BD80B400AF204B1B68002B05DD10
:1002D0001E4B1B68013B1D4A136032E01C4B1B6820
:1002E000591C1C4B83FB01235A10CB17D21A1346FF
:1002F0005B0013449B00CA1A154B1A60144B1A6812
:10030000154913465B0013449B000B4404331B68E0
:100310000E4A13600E4B1A680F4913465B001344D4
:100320009B000B441B680D4A1360094B1A680A496D
:1003300013465B0013449B000B4408331B68084AB8
:10034000136000BFBD4680BC704700BF9400002012
:10035000C4000020ABAAAA2A0000002090000020C0
:10036000C800002080B500AFFFF744FF144B93E8AE
:100370000700FFF745FF134B93E80700FFF740FF27
:100380000121114800F077FB01210F4800F07EFAAF
:1003900000F076F800F0E4F904214FF0804001F01D
:1003A000D5F81C2001F0ACFD4CF2503000F016FAEC
:1003B000064800F05DFA0648FFF772FFFEE700BF4F
:1003C000D4200008E02000080074004080380100BC
:1003D000C808200080B584B000AF3B1D83E807004B
:1003E0007B68397B3A89184600F0C6FB7868B97A91
:1003F000FA7A3B8900F083FB00BF1037BD4680BD11
:1004000090B585B000AF3C1D84E80700FB70FB7819
:10041000002B06D07B683A891146184600F051FB44
:1004200005E07B683A891146184600F04CFB00BF96
:100430001437BD4690BD80B500AF0C4B93E8070064
:10044000FFF7C8FF0A4B93E80700FFF7C3FF094B0C
:100450001868094B9B880022012100F072FB074AB3
:10046000002307CAFFF7CCFF00BF80BDF8200008BB
:1004700004210008102100081C2100082821000880
:1004800080B500AFFFF7D7FF134800F09FFB12487D
:1004900000F0B9FB2A21104800F0DFFB0E4800F005
:1004A000EAFB2A2200210C4800F099FC2B210A4883
:1004B00000F0ECFB084800F0A1FB084A012307CA42
:1004C000FFF79EFF00F0E8F8054800F001F900F0A2
:1004D000F7F800BF80BD00BF00540040EC200008CA
:1004E0009800002080B400AF00BF054B1B6803F0EC
:1004F0000203002BF9D100BF00BFBD4680BC70478E
:100500001854004080B400AF00BF054B1B6803F0D7
:100510000103002BF9D000BF00BFBD4680BC70476F
:100520001454004080B400AF00BF054B1B6803F0BB
:100530000203002BF9D000BF00BFBD4680BC70474E
:100540001454004080B400AF00BF054B1B6803F09B
:100550000403002BF9D000BF00BFBD4680BC70472C
:100560001454004080B400AF00BF054B1B6803F07B
:100570004003002BF9D000BF00BFBD4680BC7047D0
:100580001454004080B400AF024B1B6800BFBD464E
:1005900080BC70471854004080B582B000AF03465D
:1005A000FB71FB791A464A21034800F071FB00BF3A
:1005B0000837BD4680BD00BF0054004080B582B002
:1005C00000AF03460A46FB711346BB71FFF78AFF73
:1005D000104800F01DFBFFF795FF0020FFF7DCFF40
:1005E000FFF7A0FFFFF7CEFFFB791946094800F09F
:1005F0003BFBFFF7A7FFBB791946064800F034FB29
:10060000FFF7A0FF034800F008FB00BF0837BD4616
:1006100080BD00BF0054004080B584B000AF0346E9
:10062000FB71FFF75FFF1B4800F0F2FAFFF76AFF6C
:100630000020FFF7B1FFFFF775FFFFF7A3FFFB797E
:100640001946144800F010FBFFF77CFF114800F03A
:10065000E4FAFFF747FF0F4800F0DAFAFFF752FF1E
:100660000120FFF799FFFFF75DFFFFF78BFF0948B8
:1006700000F024FBFFF776FF064800F00EFB034670
:10068000FB73044800F0C9FA97F90F301846103789
:10069000BD4680BD0054004080B500AF99210020C8
:1006A000FFF78CFF80213220FFF788FF00213220E6
:1006B000FFF784FF00210020FFF780FF00BF80BD0F
:1006C00080B500AF9E210220FFF778FF00BF80BDFC
:1006D00080B582B000AF78600AE07B681A787B68EA
:1006E0005B7819461046FFF769FF7B6802337B6031
:1006F0007B68002B03D07B681B78FF2BEDD100BFFC
:100700000837BD4680BD000080B584B000AF3B1DFA
:1007100083E807007B68397B3A89184600F02CFA99
:100720007868B97AFA7A3B8900F0E9F900BF1037A6
:10073000BD4680BD80B500AF074B93E80700FFF7CB
:10074000E3FF064B18684FF480730022002100F08D
:10075000F8F900BF80BD00BF342100084021000827
:1007600080B500AFFFF7E6FF002300220021194803
:1007700000F008FF0021174800F09AFF154800F02C
:1007800037FF154B1B681946124800F095FF0221F0
:10079000104801F0F5F802210E4801F03BF9022162
:1007A0000C4801F0B9F8072202210A4800F0EEFFD8
:1007B000094B1B685B081A460221064801F0BEF986
:1007C0000121044801F00CFA024800F02AFF00BFA2
:1007D00080BD00BF00040040B000002080B582B0A2
:1007E00000AF7860214B93E80700FFF78DFF0023EF
:1007F000002200214FF0804000F0C4FE00214FF0A5
:10080000804000F055FF4FF0804000F0F1FE796825
:100810004FF0804000F050FF03214FF0804000F087
:1008200095FE06214FF0804001F0AAF806214FF016
:10083000804001F0EFF806214FF0804001F06CF8A5
:10084000072206214FF0804000F0A0FF7B685B0884
:100850001A4606214FF0804001F070F94FF08040B9
:1008600000F0DFFE00BF0837BD4680BD4C21000808
:1008700080B582B000AF786079684FF0804000F0BA
:100880001BFF00BF0837BD4680BD00BF022908D04E
:1008900003290AD0012903D1036843F0010303604F
:1008A0007047036843F48033F9E7036843F00113AA
:1008B000F5E7022908D003290AD0012903D10368EA
:1008C00023F0010303607047036823F48033F9E7E2
:1008D000036823F00113F5E7022908D003290AD0A1
:1008E000012903D1036843F4805303607047036810
:1008F00043F08053F9E7036843F01023F5E702293A
:1009000008D003290AD0012903D1036823F48053B6
:1009100003607047036823F08053F9E7036823F00E
:100920001023F5E7022908D003290AD0012903D1B1
:10093000036843F0040303607047036843F48023B3
:10094000F9E7036843F00413F5E7022908D0032907
:100950000AD0012903D1036823F004030360704720
:10096000036823F48023F9E7036823F00413F5E711
:1009700003681943016070470229036809D00329FD
:100980000CD0012903D123F0C00343EA8213036092
:10099000704723F4400343EA8253F8E7910541EAA4
:1009A00082121343F3E70022FFF7E6BF0229036830
:1009B00009D003290CD0012903D123F4706343EA41
:1009C00002230360704723F0706343EA0263F8E791
:1009D000110641EA02221343F3E7012B0BD1012A4E
:1009E00005D012B1022A04D07047016170478160BE
:1009F0007047C1607047022B0AD1012A05D012B19D
:100A0000022A04D07047C16170474161704781611B
:100A100070470000012B09D013B1022B0ED0704794
:100A2000120292B2C9B2114381627047074BC1F3FF
:100A30000B0103EA0242114301627047034BC1F309
:100A40000B0103EA02421143416270470000FF0FAD
:100A5000022908D003290AD0012903D1436843F0B1
:100A6000010343607047436843F00203F9E74368BA
:100A700043F00303F5E7022908D003290AD001292E
:100A800003D1036823F0020303607047036823F473
:100A90000033F9E7036823F00213F5E7022908D0D1
:100AA00003290AD0012903D1036843F0020303603C
:100AB0007047036843F40033F9E7036843F0021317
:100AC000F5E781617047090481617047006908405A
:100AD0007047436901EA030221EA030141EA024146
:100AE00081617047006980B270474161704741F48D
:100AF0008033C361C161C361C369C36970472DE9B4
:100B0000F0410568C46800264FF0030E43FA06F76B
:100B1000FF070FD577000EFA07FC6FEA0C0C01FAFD
:100B200007F80CEA05050CEA040402FA07F748EA9C
:100B300005053C430136102EE8D10560C460BDE8D0
:100B4000F081012941680CBF19439943F0B5416018
:100B500081680024032643FA04F5ED0707D56500F4
:100B600006FA05F721EA070102FA05F529430134DF
:100B7000102CF0D18160F0BDF0B5076A466A002301
:100B80004FF00F0C42FA03F4E50707D59D000CFA6D
:100B900005F427EA040701FA05F52F430133082B72
:100BA000F0D14FF00F0C42FA03F4E40708D59C0093
:100BB000203C0CFA04F526EA050601FA04F4264363
:100BC0000133102BEFD107624662F0BD0A4B984209
:100BD0000BD003F5806398420AD0A3F500639842D6
:100BE00009D140F2154000F045B940F21640FAE74D
:100BF00040F21740F7E7704700580040036843F0A1
:100C0000010303607047036823F00103036070472A
:100C1000036843F4807303607047036843F4007310
:100C200003607047036823F4007303607047490052
:100C300041F480418160704741F400418160704718
:100C40004900C1607047C36843F00103C360704747
:100C5000C36823F00103C3607047436823F03F0378
:100C60009BB219434160704701617047C36943F407
:100C70000043C3617047C36923F40043C3617047F5
:100C8000C36903F470431943C1617047016270473F
:100C900042EA4102D2B2026170470069C0B27047B5
:100CA0004368194341607047436823EA010141608A
:100CB0007047036843F4806303607047036823F45C
:100CC000806303607047036843F400630360704708
:100CD000036823F4006303607047C36919B923F400
:100CE0008043C361704743F48043FAE7436843F4A9
:100CF000006343607047436823F4006343607047B8
:100D0000436843F4805343607047436823F480533F
:100D1000436070472DE9F0410446DDE906651F4652
:100D20002BB975BB2046BDE8F041FFF776BFA3693C
:100D3000980704F11808FAD42046FFF769FF6369A1
:100D4000DB0704F11400FAD5D8F80030DB07F6D53C
:100D5000D8F800309B07F2D54B00DBB204F1100C41
:100D6000236103689B07FCD5D8F8003017449742ED
:100D7000D7D012F8013BCCF8003003685B07FCD5F4
:100D8000F5E72046FFF744FFFFF793FF6369D807B5
:100D900004F11407FAD5A269D20704F11803F5D5B6
:100DA000A2699007F2D5490041F00101C9B204F1EE
:100DB000100821613A689207FCD51B680022691E61
:100DC0008A4202D12046FFF779FF3B685B06FCD5DB
:100DD000D8F80030B35401329542F1D1A2E770B592
:100DE0000E46D1B20446FFF738FF91B24D1C012EDA
:100DF000ADB20CD1FFF73AFF062102EB8202B2FB43
:100E0000F1F189B22046FFF73BFF256270BDFFF785
:100E100032FF01EB8101F4E7036819430160704779
:100E2000036823EA01010160704703681943016008
:100E30007047036823EA010101607047430903F129
:100E4000804303F50E3300F01F0219680120904023
:100E5000084318607047430903F1804303F50E33DC
:100E600000F01F001A68012101FA00F022EA0002D6
:100E70001A607047430903F1804303F50E3300F015
:100E80001F02196801209040014319601A6822EA84
:100E9000000018607047430903F1804303F50E33E7
:100EA00000F01F0219680120904008431860704745
:100EB000430903F1804303F50E3300F01F001A6865
:100EC000012101FA00F022EA00021A6070470000D6
:100ED000034A136823F4C00343EA4050106070478C
:100EE00008380240032802D0052806D07047054A7A
:100EF000136843F4802313607047034A136843F078
:100F00000403F8E70038024070380240032802D09A
:100F1000052806D07047054A136823F48023136020
:100F20007047034A136823F00403F8E700380240CF
:100F30007038024007284FF0010306D90B2894BFF0
:100F400007380638834098B270471846704700004B
:100F500006280AD8DFE800F0041E230A0F1419003F
:100F6000114A136843F48013136070470E4A1368E4
:100F700043F40023F8E70C4A136843F48023F3E7B3
:100F8000094A136843F40033EEE7074A136843F451
:100F90008033E9E7044A136843F48003E4E7024A34
:100FA000136843F40013DFE70C38024006280AD820
:100FB000DFE800F0041E230A0F141900114A136819
:100FC00043F48053136070470E4A136843F4006380
:100FD000F8E70C4A136843F48063F3E7094A13689F
:100FE00043F40073EEE7074A136843F48073E9E7BC
:100FF000044A136843F48043E4E7024A136843F465
:101000000053DFE70C38024006280AD8DFE800F07A
:10101000041E230A0F141900114A136823F4805385
:10102000136070470E4A136823F40063F8E70C4A14
:10103000136823F48063F3E7094A136823F4007309
:10104000EEE7074A136823F48073E9E7044A13685C
:1010500023F48043E4E7024A136823F40053DFE7F4
:101060000C380240062828D8DFE800F0041D2209C9
:101070000E131800124B1868C0F300107047104B85
:101080001868C0F3C00070470D4B1868C0F38000AB
:1010900070470B4B1868C0F340007047084B186846
:1010A00000F001007047064B1868C0F380107047CD
:1010B000034B1868C0F3401070470020704700BF12
:1010C0000C380240024A136843F40003136070476F
:1010D0000C380240024B1868C0F3C010704700BFC4
:1010E0000C380240062822D8DFE800F004171C095B
:1010F0000E1315000F4B1868C0F3406070470D4B7E
:101100001868C0F3404070470A4B1868C0F34000AD
:101110007047094BF9E7094BF7E7064B1868C0F32E
:1011200040707047034B1868C0F3C06070470020E0
:10113000704700BF003802407038024074380240E7
:1011400008B502461046FFF7CDFF0028FAD008BDCB
:10115000032806D10B4A1368C3F38103012BFAD18C
:101160007047042805D1074A136813F00C0FFBD110
:1011700070470028FCD1034A1368C3F38103022B94
:10118000FAD170470838024006280AD8DFE800F094
:1011900004181D0A0F1416000E4A136843F08073DA
:1011A000136070470B4A136843F48033F8E7094A29
:1011B000136843F00103F3E7074AF9E7074AF7E743
:1011C000044A136843F08053EAE7024A136843F085
:1011D0008063E5E70038024070380240743802400E
:1011E00006280AD8DFE800F004181D0A0F141600BC
:1011F0000E4A136823F08073136070470B4A13681C
:1012000023F48033F8E7094A136823F00103F3E776
:10121000074AF9E7074AF7E7044A136823F08053BF
:10122000EAE7024A136823F08063E5E700380240EA
:101230007038024074380240024A136843F40023B5
:101240001360704700380240024A136823F40023F9
:10125000136070470038024047F6C073090703EA7D
:10126000801001F0E0431843014B1860704700BF45
:101270008438024012061B0703F0E04302F070625C
:1012800009041A4301F4403147F6C07303EA8010A1
:101290000A43024B02431A60704700BF883802407D
:1012A000074A136823F07F4323F47C03090423F4E3
:1012B000604341EA002123F0FF03194311607047A6
:1012C0008C380240034A136823F00303184310606C
:1012D000704700BF08380240034A136823F48003B4
:1012E00043EA80501060704704380240034A136894
:1012F00023F4604343EA40301060704708380240EE
:10130000034A136823F4E05343EA802010607047D7
:1013100008380240034A136823F0F00343EA001040
:101320001060704708380240034A136823F4F8132A
:1013300043EA0040106070470838024010B547F695
:10134000C07404EA811100F03F001B0603F07063D3
:1013500001431943029B5408022B04F1FF344FEA66
:10136000044438BF022304F440341B0703F0E04375
:1013700021431943014B196010BD00BF04380240DE
:1013800010B5029C022C38BF022424071B0603F070
:10139000706304F0E0441C4300F03F0047F6C07364
:1013A00003EA811104430C4351080139090401F493
:1013B00040310C43024B44F480041C6010BD00BF5C
:1013C00004380240024B1868C0F38100704700BF28
:1013D0000838024037B504460420FFF7D5FE042044
:1013E000FFF7AEFE0020FFF76DFFE379012B05D17B
:1013F0000320FFF7C9FE0320FFF7A2FE40F61C0002
:10140000FFF71CFDE07B00F059FE207BFFF782FF19
:10141000607BFFF775FFA07BFFF768FF254A6188B7
:10142000136823F080731360E379A579227920781B
:101430000095012B637931D1FFF7A2FF1D4A136894
:1014400043F0807313600020FFF77AFEA3685A050B
:1014500027D500F003FEA3689B0525D500F00EFEFE
:10146000A06800F0E5FD0220FFF72CFF124A136888
:10147000C3F38103022BFAD1104B22691A60104B7F
:1014800062691A600F4BA2691A60E379012B0ED1D1
:10149000042003B0BDE83040FFF7A2BEFFF74EFFC7
:1014A000CCE700F0E3FDD6E700F0F0FDD8E703B0AD
:1014B00030BD00BF0038024008380240B4000020B0
:1014C000B8000020BC000020FFF784BF044B20F4CC
:1014D000806098420CBF034B034B1868704700BFF5
:1014E00000100140BC000020B800002000F1404086
:1014F000084BB0F5005F1B6806D8074A106813F464
:10150000E05F18BF40007047044A13F4604F106852
:10151000F7E700BF08380240B8000020BC000020F8
:10152000014B1868704700BFB8000020044B20F43E
:10153000806098420CBF034B034B1868704700BF94
:1015400000380040B8000020BC000020C3681943E8
:10155000C1607047C36823EA0101C1607047036935
:10156000C0681840084003D080298CBF00200120AB
:10157000704703690B4214BF012000207047C94324
:101580000161704710B50468134324F45C740B4385
:101590002343036010BD036823F4407303600368B2
:1015A00001F44071194301607047036843F0800300
:1015B00003607047036823F080030360704703688B
:1015C00023F060030360036801F0600119430160C8
:1015D0007047036823F0100303607047036843F00B
:1015E000100303607047036843F00803036070470B
:1015F000036823F0080303607047036823F00403C3
:1016000003607047036843F0040303607047036896
:1016100023F0020303607047036843F00203036092
:101620007047036843F0010303607047036823F0C9
:10163000010303607047436801F4FE4119434160B0
:101640007047436801F4FE4123EA01034360704799
:10165000436843F0800343607047436823F080038E
:1016600043607047436823F0700343604368194345
:1016700041607047436823F0080343607047436844
:1016800043F0080343607047436843F0040343603A
:101690007047436823F0040343607047436843F096
:1016A000010343607047436823F0010343607047C0
:1016B0008162704701637047C1627047062912D882
:1016C000DFE801F0041109110D111200836943F0E4
:1016D000800383617047836943F40043F9E7C3697A
:1016E00043F08003C3617047C36943F40043F9E7E3
:1016F000062912D8DFE801F0041109110D111200BA
:10170000836923F0800383617047836923F4004376
:10171000F9E7C36923F08003C3617047C36923F409
:101720000043F9E7062912D8DFE801F00411091196
:101730000D111200836943F00403836170478369CC
:1017400043F48063F9E7C36943F00403C36170475E
:10175000C36943F48063F9E7062912D8DFE801F092
:10176000041109110D111200836923F00403836130
:101770007047836923F48063F9E7C36923F00403A6
:10178000C3617047C36923F48063F9E706297AD8F7
:10179000DFE801F00479337963799200836923F0FB
:1017A0000303836183698361836923F07003836129
:1017B000072A68D8DFE802F03304090D1115191D56
:1017C000836943F0100383617047836943F020030A
:1017D000F9E7836943F03003F5E7836943F0400399
:1017E000F1E7836943F05003EDE7836943F0600359
:1017F000E9E7836943F07003E5E7836923F4407305
:10180000836183698361836923F4E0438361072AE9
:1018100039D8DFE802F004060A0E12161A1E836990
:10182000D1E7836943F48053CDE7836943F40053E0
:10183000C9E7836943F44053C5E7836943F48043B0
:10184000C1E7836943F4A043BDE7836943F4C04320
:10185000B9E7836943F4E043B5E7C36923F00303C1
:10186000C361C369C361C36923F07003C361072AFD
:1018700009D8DFE802F03304090D1115191DC369F9
:1018800043F01003C3617047C36943F02003F9E7D5
:10189000C36943F03003F5E7C36943F04003F1E760
:1018A000C36943F05003EDE7C36943F06003E9E720
:1018B000C36943F07003E5E7C36923F44073C36170
:1018C000C369C361C36923F4E043C361072ADAD85B
:1018D000DFE802F004060A0E12161A1EC369D1E7E9
:1018E000C36943F48053CDE7C36943F40053C9E7A8
:1018F000C36943F44053C5E7C36943F48043C1E778
:10190000C36943F4A043BDE7C36943F4C043B9E7E7
:10191000C36943F4E043B5E7062912D8DFE801F0D4
:10192000041109110D111200836943F0080383614A
:101930007047836943F40063F9E7C36943F0080320
:10194000C3617047C36943F40063F9E7062912D8FD
:10195000DFE801F0041109110D111200836923F071
:10196000080383617047836923F40063F9E7C3695F
:1019700023F00803C3617047C36923F40063F9E7E8
:10198000062909D8DFE801F0041509190D1D110019
:10199000036A23F0020303627047036A23F0200303
:1019A000F9E7036A23F40073F5E7036A23F40053AD
:1019B000F1E7036A23F00803EDE7036A23F08003ED
:1019C000E9E7036A23F40063E5E7062909D8DFE8BD
:1019D00001F0041509190D1D1100036A43F00203FB
:1019E00003627047036A43F02003F9E7036A43F494
:1019F0000073F5E7036A43F40053F1E7036A43F029
:101A00000803EDE7036A43F08003E9E7036A43F460
:101A10000063E5E7062909D8DFE801F00415091994
:101A20000D1D1100036A43F0010303627047036A4E
:101A300043F01003F9E7036A43F48073F5E7036AA0
:101A400043F48053F1E7036A43F00403EDE7036ACC
:101A500043F04003E9E7036A43F48063E5E70629BE
:101A600009D8DFE801F0041509190D1D1100036AFA
:101A700023F0010303627047036A23F01003F9E7C0
:101A8000036A23F48073F5E7036A23F48053F1E7D4
:101A9000036A23F00403EDE7036A23F04003E9E758
:101AA000036A23F48063E5E7062909D8DFE801F03B
:101AB00004090D1115191D00436843F48073436038
:101AC0007047436843F40073F9E7436843F4806365
:101AD000F5E7436843F40063F1E7436843F4805358
:101AE000EDE7436843F40053E9E7436843F4804378
:101AF000E5E7062909D8DFE801F004090D111519F9
:101B00001D00436823F4807343607047436823F4E7
:101B10000073F9E7436823F48063F5E7436823F42F
:101B20000063F1E7436823F48053EDE7436823F44F
:101B30000053E9E7436823F48043E5E706290CD81E
:101B4000DFE801F0040B060B080B0A004263704744
:101B500082637047C263704702647047436C43F40A
:101B6000004343647047436C23F40043436470476D
:101B7000436C43F4804343647047436C23F48043D5
:101B800043647047436C43F4005343647047436CB1
:101B900023F4005343647047436C43F4805343641D
:101BA0007047436C23F4805343647047436C43F4A1
:101BB000006343647047436C23F4006343647047DD
:101BC000436C43F4806343647047436C23F4806345
:101BD00043647047436C194341647047FFF7FABF91
:101BE0004369194341617047406A704741627047D9
:101BF00003291CD8DFE801F0020B131C836923F0D2
:101C0000F0038361836943EA02128261704783694A
:101C100023F470438361836943EA0232F5E7C369C1
:101C200023F0F003C361C36943EA0212C261704743
:101C3000C36923F47043C361C36943EA0232F5E721
:101C400003291CD8DFE801F0020B131C836923F081
:101C50000C038361836943EA82028261704783696E
:101C600023F440638361836943EA8222F5E7C36911
:101C700023F00C03C361C36943EA8202C261704767
:101C8000C36923F44063C361C36943EA8222F5E771
:101C900010B501F0FD04012C02F0030305D15C1E18
:101CA000012C9CBFD24302F0030303290AD8DFE8CA
:101CB00001F0020A121A826922F00302826182692B
:101CC0001343836110BD826922F44072826182698C
:101CD00042EA0323F5E7C26922F00302C261C26946
:101CE0001343C361EEE7C26922F44072C261C26964
:101CF00042EA0323F5E7026A890001238B4013437C
:101D000003627047036A890001228A4023EA0203C2
:101D100003627047836823F470638360836843EAD7
:101D2000012181607047836823F440538360836896
:101D300043EA013181607047836819B143F400437D
:101D40008360704723F40043FAE7836823F00703B6
:101D500083608368194381607047836823F0700350
:101D600083608368194381607047836819B143F4C5
:101D700080438360704723F48043FAE7FEE77047AF
:101D800038B5184A184B19498B4217D3184A002105
:101D9000934218D3174A184C1368184D43F4007334
:101DA0001360AC4212D3164C164DAC4212D3FEF760
:101DB000D9FA154C154DAC4210D338BD52F8040B6E
:101DC00043F8040BE0E743F8041BE1E754F8043B55
:101DD0009847E6E754F8043B9847E6E754F8043B95
:101DE0009847E8E78823000800000020C000002092
:101DF000D000002014ED00E08823000888230008AC
:101E00008823000888230008882300088823000806
:101E1000024B20F07F401860704700BF14E000E0E4
:101E2000024B186820F07F40704700BF14E000E0CC
:101E3000024B186820F07F40704700BF18E000E0B8
:101E4000044A136800F0040023F004030343136002
:101E5000704700BF10E000E008B5B1FBF0F10A4B9D
:101E600099420ED8094B99428ABF00200420C90824
:101E7000FFF7E6FF064B013921F07F411960012091
:101E800008BD0020FCE700BFF7FFFF07FEFFFF00D3
:101E900014E000E0024A136843F002031360704745
:101EA00010E000E0024A136823F002031360704759
:101EB00010E000E0024A136843F00103136070472A
:101EC00010E000E0024A136823F00103136070473A
:101ED00010E000E0024B1868C0F30040704700BFFC
:101EE00010E000E0014B00221A60704718E000E0AB
:101EF000024B186820F07F40704700BF1CE000E0F4
:101F0000054B420903EB820300F01F00012202FA95
:101F100000F01860704700BF00E100E0054B420987
:101F200003EB820300F01F00012202FA00F01860A8
:101F3000704700BF80E100E0074B420903EB8203DA
:101F400000F01F001A68012303FA00F0104214BFCA
:101F500018460020704700BF00E200E0054B420930
:101F600003EB820300F01F00012202FA00F0186068
:101F7000704700BF00E200E0054B420903EB82031B
:101F800000F01F00012202FA00F01860704700BF45
:101F900080E200E0074B420903EB820300F01F00E0
:101FA0001A68012303FA00F0104214BF18460020FB
:101FB000704700BF00E100E05A2893BF00F1604085
:101FC00000F00F00034B00F564408CBFC15401705A
:101FD000704700BF14ED00E0074B420903EB82039A
:101FE00000F01F001A68012303FA00F0104214BF2A
:101FF00018460020704700BF00E300E0EF289FBFB5
:10200000024B1A6810431860704700BF00EF00E0F1
:10201000024A136843F4807313607047003C024027
:10202000024A136823F4807313607047003C024037
:10203000034A136823F00F0318431060704700BF72
:10204000003C0240034B044A1A6002F144321A6019
:10205000704700BF083C02403B2A1908024A136837
:1020600043F4806313607047003C0240024A1368E7
:1020700023F4806313607047003C0240024A1368F7
:1020800043F4007313607047003C0240024A136837
:1020900023F4007313607047003C0240024A136847
:1020A00043F4805313607047003C0240024A1368B7
:1020B00043F4006313607047003C0240044A136815
:1020C000800323F4404380B218431060704700BF80
:1020D0000070004000080240800001000E00000077
:1020E00000000240100003000E000000000C02403F
:1020F000100001000E000000000C02401000010062
:102100000E00000000040240400202010400000032
:1021100000040240400202010400000000040240EA
:102120004002020104000000000C02401000010007
:102130000E000000000802408000020002000000C3
:1021400000040240400202010400000000040240BA
:1021500000080200010000000C005001040700010B
:10216000020600000004000300BD010580DE8002BD
:1021700000BD010506006000020400010306000026
:102180000004000300D8B805006CDC0200D8B805D4
:102190000C005001020700010506000000050403C1
:1021A000007A030A80DE800200BD01050C00680190
:1021B0000208000105060000000504030095BA0AA4
:1021C00040A5AE02804A5D051000500104070001E1
:1021D000020600000004000300BD010580DE80024D
:1021E00000BD0105080060000204000103060000B4
:1021F0000004000300D8B805006CDC0200D8B80564
:10220000100050010207000105060000000504034C
:10221000007A030A80DE800200BD0105100068011B
:102220000208000105060000000504030095BA0A33
:1022300040A5AE02804A5D05190050010407000167
:10224000020600000004000300BD010580DE8002DC
:1022500000BD01051900C0000204000103060000D2
:102260000004000300D8B805006CDC0200D8B805F3
:1022700019005001020700010506000000050403D3
:10228000007A030A80DE800200BD010519006801A2
:102290000208000105060000000504030095BA0AC3
:1022A00040A5AE02804A5D05080050010407000108
:1022B000020600000004000300BD010580DE80026C
:1022C00000BD0105040060000204000103060000D7
:1022D0000004000300D8B805006CDC0200D8B80583
:1022E0000800500102070001050600000005040374
:1022F000007A030A80DE800200BD01050800680143
:102300000208000105060000000504030095BA0A52
:1023100040A5AE02804A5D05100050010407000090
:10232000020600000004000300BD010580DE8002FB
:1023300000BD010508006000020400000306000063
:102340000004000300D8B805006CDC0200D8B80512
:1023500010005001020700000506000000050403FC
:10236000007A030A80DE800200BD010510006801CA
:102370000208000005060000000504030095BA0AE3
:0823800040A5AE02804A5D0594
:10238800D8D600000A0000000100000060EA000042
:102398000200000000000000E8FD00000800000046
:1023A80001000000E8FD000002000000000000003D
:1023B800701101000600000001000000701101000A
:1023C8000200000000000000F824010005000000E1
:1023D80001000000F82401000100000000000000D6
:1023E800803801000400000001000000803801006E
:1023F8000100000000000000084C0100030000007C
:1024080001000000084C010001000000000000006D
:10241800084C01000100000004AF0D0034000EC09C
:102428000C800A0014C415C408010901FF0000004B
:10243800060000000024F4000024F4000024F40046
:0400000508001D8151
:00000001FF
